:1000000008C1000034C1000032C1000030C100004E
:100010002EC100002CC100002AC1000028C1000030
:1000200026C1000024C1000022C1000020C1000040
:100030001EC100001CC100001AC1000018C1000050
:1000400016C1000014C1000012C1000010C1000060
:100050000EC100000CC100000AC1000036C400003F
:1000600006C10000FCC30000D1C3000000C10000B5
:10007000FEC00000FCC00000FAC00000F8C0000094
:10008000F6C00000F4C00000F2C00000F0C00000A4
:10009000EEC00000ECC00000EAC00000E8C00000B4
:1000A000E6C00000E4C00000E2C00000E0C00000C4
:1000B000DEC00000DCC00000DAC00000D8C00000D4
:1000C000D6C00000D4C00000D2C00000D0C00000E4
:1000D000CEC00000CCC00000CAC00000C8C00000F4
:1000E000C6C000006501680157015B015F019F0107
:1000F0006C01700176017A017E01840188018C0116
:100100009F01920196019A0100002100240027001E
:100110002A002D0030003300010100000401070116
:100120000A0100002200250028002B002E003100CB
:10013000340002010000050108010B010505050559
:10014000070508080808020202020A0A080804044F
:10015000040401010101010101010303030303037D
:100160000303040707070C0C0C0C0C0C0C0C02020C
:10017000020206060606060606060B0B0B0B0B0B09
:100180000B0B010210202008081020401020408096
:10019000020102010804020101020408102040804B
:1001A00080402010080402018004020180402010D9
:1001B0000804020108040201010204081020408022
:1001C000010204081020408000000A0B02090C0DF7
:1001D0000E080703040100000000000000000000FA
:1001E000000000000000000000000000000000000F
:1001F00000000000121110000000000000000000CC
:100200000000000000000000000000000000AF043B
:100210008A0611241FBECFEFD1E2DEBFCDBF00E0C2
:100220000CBF27E0AEE6B2E001C01D92A83CB207C9
:10023000E1F712E0A0E0B2E0E4E0F2E100E00BBFA1
:1002400002C007900D92AE36B107D9F711E0C8E0B1
:10025000D1E000E005C021970109802FFE01A4D55F
:10026000C730D10780E00807B1F7E7D3BAC7C8CED7
:1002700090E0FC01E853FE4F4491FC01EE57FE4F25
:100280002491FC01E45CFE4F9491992309F466C02B
:10029000442309F454C050E0FA013197E231F105EA
:1002A00008F04DC08827EE58FF4F8F4F7DC58091D5
:1002B00080008F7707C0809180008F7D03C0809180
:1002C0008000877F809380003AC084B58F7702C01A
:1002D00084B58F7D84BD33C08091B0008F7703C01B
:1002E0008091B0008F7D8093B00029C080919000F4
:1002F0008F7707C0809190008F7D03C08091900020
:10030000877F809390001BC08091A0008F7707C0EB
:100310008091A0008F7D03C08091A000877F809393
:10032000A0000DC0809120018F7707C0809120012F
:100330008F7D03C080912001877F80932001E92F6A
:10034000F0E0EE0FFF1FEE5DFE4FA591B4919FB759
:10035000F8948C91209528232C939FBF0895CF92D9
:10036000DF92EF92FF920F931F93CF93DF936C0175
:100370007A018B01C0E0D0E0CE15DF0581F0D80115
:100380006D918D01D601ED91FC910190F081E02DF0
:10039000C6011995892B11F02196EECF7E01C70178
:1003A000DF91CF911F910F91FF90EF90DF90CF9051
:1003B0000895089580E090E00895FC01538D448DE8
:1003C000252F30E0842F90E0821B930B541710F000
:1003D000CF96089501970895FC01918D828D98170D
:1003E00061F0828DDF01A80FB11D5D968C91928D19
:1003F0009F5F9F73928F90E008958FEF9FEF089516
:100400002FB7F8948091730290917402A0917502B5
:10041000B09176022FBF80937F0290938002A093C9
:100420008102B093820287E792E0D6DF97FF26C071
:100430002FB7F8948091730290917402A091750285
:10044000B09176022FBF40917F025091800260915F
:10045000810270918202841B950BA60BB70B409111
:100460007B0250917C0260917D0270917E02841724
:100470009507A607B707B8F28FEF9FEF0895FC0125
:10048000918D828D981731F0828DE80FF11D858D49
:1004900090E008958FEF9FEF0895FC01918D228DDC
:1004A000892F90E0805C9F4F821B91098F73992761
:1004B000089587E792E0F1DF21E0892B09F420E03D
:1004C000822F0895FC01848DDF01A80FB11DA35A6E
:1004D000BF4F2C91848D90E001968F739927848F64
:1004E000A689B7892C93A089B1898C918370806487
:1004F0008C93938D848D981306C00288F389E02D28
:1005000080818F7D80830895EF92FF920F931F93D8
:10051000CF93DF93EC0181E0888F9B8D8C8D9813B6
:1005200005C0E889F989808185FD25C0F62E0B8DEF
:1005300010E00F5F1F4F0F731127E02E8C8DE81214
:100540000BC00FB607FCFACFE889F989808185FFD7
:10055000F5CFCE01B7DFF2CF8B8DFE01E80FF11D95
:10056000E35AFF4FF0829FB7F8940B8FEA89FB891B
:10057000808180620AC09FB7F894EE89FF8960830A
:10058000E889F98980818370806480839FBF81E0DE
:1005900090E0DF91CF911F910F91FF90EF90089520
:1005A000CF93DF93EC01888D8823C1F0EA89FB8922
:1005B000808185FD05C0A889B9898C9186FD0EC012
:1005C0000FB607FCF5CF808185FFF2CFA889B989E6
:1005D0008C9185FFEDCFCE0175DFE8CFDF91CF9114
:1005E000089580E090E0892B19F063DF811125C028
:1005F00080E090E0892B41F080E090E0892B21F0B1
:100600000E94000081111CC080E090E0892B41F025
:1006100080E090E0892B21F00E940000811113C03E
:1006200080E090E0892BA1F080E090E0892B81F0C0
:100630000E94000081110AC008950E940000D8CFD6
:100640000E940000E1CF0E940000EACF0C9400005D
:100650000895CF93DF9390E0FC01EE57FE4F249175
:10066000FC01E45CFE4F8491882361F190E0880FE7
:10067000991FFC01E85FFE4FC591D491FC01EE5D2E
:10068000FE4FA591B491611109C09FB7F89488817C
:10069000209582238883EC912E230BC0623061F475
:1006A0009FB7F8948881322F309583238883EC910B
:1006B0002E2B2C939FBF06C08FB7F894E8812E2B6A
:1006C00028838FBFDF91CF9108953FB7F894809131
:1006D0006F0290917002A0917102B091720226B5E2
:1006E000A89B05C02F3F19F00196A11DB11D3FBF6A
:1006F000BA2FA92F982F8827820F911DA11DB11DF8
:10070000BC01CD0142E0660F771F881F991F4A95F3
:10071000D1F708958F929F92AF92BF92CF92DF92BE
:10072000EF92FF92D2DF4B015C0184E1C82ED12C05
:10073000E12CF12CCADFDC01CB0188199909AA0947
:10074000BB09883E9340A105B105A0F321E0C21A80
:10075000D108E108F10888EE880E83E0981EA11CFC
:10076000B11CC114D104E104F10421F7FF90EF9012
:10077000DF90CF90BF90AF909F908F900895CF93D0
:10078000DF93009771F0FC0101900020E9F73197A9
:10079000AF01481B590BBC0187E792E0E0DDEC019B
:1007A00002C0C0E0D0E042E050E068E172E087E7DC
:1007B00092E0D5DD8C0F9D1FDF91CF910895FDD480
:1007C0000F931F93CF93DF93EC018881998100975A
:1007D00029F02A813B812617370780F48B016F5F50
:1007E0007F4F0BD4009761F0998388831B830A8322
:1007F0002C813D81232B11F4FC01108281E001C08A
:1008000080E0DF91CF911F910F9108951F920F9279
:100810000FB60F9211240BB60F922F933F934F9365
:100820005F936F937F938F939F93AF93BF93EF9358
:10083000FF9387E792E046DEFF91EF91BF91AF9182
:100840009F918F917F916F915F914F913F912F91E8
:100850000F900BBE0F900FBE0F901F9018951F9218
:100860000F920FB60F9211240BB60F922F938F9306
:100870009F93EF93FF93E0918702F091880280812C
:10088000E0918D02F0918E0282FD12C090818091E4
:1008900090028F5F8F7320919102821751F0E09147
:1008A0009002F0E0E958FD4F958F8093900201C0CF
:1008B0008081FF91EF919F918F912F910F900BBEAF
:1008C0000F900FBE0F901F9018951F920F920FB6AA
:1008D0000F9211242F933F938F939F93AF93BF93C6
:1008E0008091730290917402A0917502B09176028A
:1008F00030916E0223E0230F2D3720F40196A11DC5
:10090000B11D05C026E8230F0296A11DB11D20933D
:100910006E028093730290937402A0937502B09359
:10092000760280916F0290917002A0917102B09155
:1009300072020196A11DB11D80936F029093700207
:10094000A0937102B0937202BF91AF919F918F916A
:100950003F912F910F900FBE0F901F901895CF933E
:10096000DF9310927A021092790288EE93E0A0E071
:10097000B0E080937B0290937C02A0937D02B093C1
:100980007E028AE092E0909378028093770285EC71
:1009900090E0909384028093830284EC90E09093A3
:1009A00086028093850280EC90E090938802809389
:1009B000870281EC90E090938A028093890282EC16
:1009C00090E090938C0280938B0286EC90E0909361
:1009D0008E0280938D0210929002109291021092DA
:1009E000920210929302C4E1D3E0198218821B8212
:1009F0001A821D821C8260E070E0CE01E1DE288157
:100A0000398181110CC02115310511F0C9016CD259
:100A1000198218821D821C821B821A8206C01D82C6
:100A20001C826AE172E0C901D5D3269687E0C43CF6
:100A3000D807D9F6DF91CF910895CF93DF93CDB743
:100A4000DEB728970FB6F894DEBF0FBECDBF7894FF
:100A500084B5826084BD84B5816084BD85B58260C3
:100A600085BD85B5816085BD80916E008160809374
:100A70006E001092810080918100826080938100DD
:100A800080918100816080938100809180008160ED
:100A9000809380008091B10084608093B100809148
:100AA000B00081608093B00080919100826080935B
:100AB00091008091910081608093910080919000DD
:100AC0008160809390008091A10082608093A1005A
:100AD0008091A10081608093A1008091A00081603D
:100AE0008093A000809121018260809321018091F8
:100AF0002101816080932101809120018160809398
:100B0000200180917A00846080937A0080917A003D
:100B1000826080937A0080917A00816080937A006D
:100B200080917A00806880937A001092C10061E021
:100B300086E18FDD61E088E18CDD61E08AE189DDBD
:100B400061E08CE186DD61E08EE183DD61E080E2E1
:100B500080DD62E08DE27DDD62E08FE27ADDE091B2
:100B60008702F091880282E08083E0918302F09115
:100B700084021082E0918502F09186028FEC8083DE
:100B800010928F02E0918B02F0918C0286E08083BC
:100B9000E0918902F0918A02808180618083E091F6
:100BA0008902F0918A02808188608083E0918902C5
:100BB000F0918A02808180688083E0918902F091BF
:100BC0008A0280818F7D8083A5DD86E151DB8AE109
:100BD0004FDB8EE14DDB88E14BDB8CE149DB80E2D2
:100BE00047DB8BE192E0CBDD8DE292E0C8DD8DE367
:100BF00092E0C5DD87E792E050DC892BD9F387E7E7
:100C000092E04BDC181619060CF057C01A821982B4
:100C10001C821B821E821D8260E070E0CE01019664
:100C2000CFDD29813A8181110CC02115310511F0E8
:100C3000C9015AD11A8219821E821D821C821B820E
:100C400006C01E821D826AE172E0C901C3D2D8DBF0
:100C500097FD1CC08A309105C9F08F8318860D81DD
:100C60001E810F5F1F4FB801CE010196A9DD8823B9
:100C700071F329813A818D819E81BE01695F7F4F29
:100C8000820F931FA7D21E830D83E1CF09811A81A2
:100C90000115110529F0C8014CD06B017C0103C07E
:100CA000C12CD12C7601C8011FD134DD87E792E039
:100CB00077DC82E0C816D10441F182E592E05FDD85
:100CC00004E113E060E070E0C8017ADDF801208102
:100CD000318181110DC02115310511F0C90104D1F7
:100CE000F80111821082158214821382128207C0C9
:100CF000F801158214826AE172E0C9016BD20A5FC1
:100D00001F4FF7E0043C1F07E9F68FE592E037DD5F
:100D100068DC67CFCF93DF93C4ECD7E02697888158
:100D20009981E2D083E0C431D807C1F7DF91CF9138
:100D300008951F93FC0199278827BC01E89411911D
:100D40001032E9F3193010F01E30C8F31B3249F0AD
:100D50001D3241F4689405C012D0610F711D811DD0
:100D6000911D119110531A30B8F33EF4909580956F
:100D7000709561957F4F8F4F9F4F1F910895592F09
:100D8000482F372F262F660F771F881F991F660F52
:100D9000771F881F991F620F731F841F951F660F8F
:100DA000771F881F991F0895EE0FFF1F881F8BBFA5
:100DB0000790F691E02D19940F931F93CF93DF9333
:100DC0008230910510F482E090E0E091C607F09146
:100DD000C70720E030E0A0E0B0E0309719F1408193
:100DE00051810281138148175907C8F0841795076C
:100DF00069F4109731F012960C93129713961C9386
:100E000027C00093C6071093C70722C021153105DC
:100E100019F04217530718F49A01BD01EF01DF01E1
:100E2000F801DBCF21153105F9F0281B390B2430EF
:100E3000310580F48A819B816115710521F0FB01E8
:100E40009383828304C09093C7078093C607FE01F3
:100E5000329644C0FE01E20FF31F8193919322501A
:100E60003109398328833AC02091C4073091C507DE
:100E7000232B41F420910202309103023093C507E5
:100E80002093C40720910002309101022115310501
:100E900041F42DB73EB74091040250910502241B46
:100EA000350BE091C407F091C507E217F307A0F4F2
:100EB0002E1B3F0B2817390778F0AC014E5F5F4FB0
:100EC0002417350748F04E0F5F1F5093C507409316
:100ED000C4078193919302C0E0E0F0E0CF01DF917D
:100EE000CF911F910F910895CF93DF93009709F44D
:100EF00081C0FC01329713821282A091C607B09183
:100F0000C707109781F420813181820F931F2091B0
:100F1000C4073091C5072817390751F5F093C50765
:100F2000E093C40767C0ED0120E030E0CE17DF0793
:100F300040F44A815B819E0141155105F1F0EA01BF
:100F4000F5CFD383C28340815181840F951FC81789
:100F5000D90759F488819981840F951F029691834E
:100F600080838A819B81938382832115310529F4B3
:100F7000F093C707E093C6073DC0E901FB83EA830E
:100F800049915991C40FD51FEC17FD0761F4808179
:100F90009181840F951F0296E9019983888382814C
:100FA00093819B838A83E0E0F0E012968D919C917F
:100FB0001397009719F0FD01DC01F7CF8D919C91FB
:100FC00011979D012E5F3F4F820F931F2091C40701
:100FD0003091C5072817390769F4309729F4109222
:100FE000C7071092C60702C013821282B093C507CA
:100FF000A093C407DF91CF9108956F927F928F9253
:101000009F92AF92BF92CF92DF92EF92FF920F9397
:101010001F93CF93DF93009781F4CB01DF91CF91A2
:101020001F910F91FF90EF90DF90CF90BF90AF9006
:101030009F908F907F906F90BFCEFC01E60FF71FBF
:101040009C0122503109E217F30708F4A5C0EC0116
:10105000D9010D911C91119706171707A8F00530BB
:10106000110508F497C0C80104978617970708F47C
:1010700091C002501109061B170B019311936D9338
:101080007C93CF0131DF86C05B01A01AB10A4C010D
:10109000800E911EA091C607B091C707612C712CDC
:1010A000E12CF12C109709F446C08D919C91119779
:1010B000A815B905B1F56C0142E0C40ED11CCA14E3
:1010C000DB0478F14C018A189B08640142E0C40EED
:1010D000D11C1296BC9012971396AC91B5E0CB162A
:1010E000D10440F0B282A38391828082D9016D93B2
:1010F0007C9309C00E5F1F4F800F911FF9019183F0
:101100008083EB2DFA2FE114F10431F0D70113960F
:10111000FC93EE9312973EC0F093C707E093C60787
:1011200039C06816790608F43C017D0112960D90CD
:10113000BC91A02DB7CF8091C4079091C5078816A8
:101140009906E1F466167706C8F480910002909142
:101150000102009741F48DB79EB74091040250916F
:101160000502841B950BE817F907B0F4F093C50747
:10117000E093C407F901718360830CC0CB011CDECE
:101180007C01009749F0A801BE011BD0CE01ACDE66
:10119000C70104C0CE0102C080E090E0DF91CF9192
:1011A0001F910F91FF90EF90DF90CF90BF90AF9085
:1011B0009F908F907F906F90089581E090E0F894D9
:1011C00010C0FB01DC0102C001900D924150504063
:1011D000D8F70895FB01DC0101900D920020E1F7A2
:1011E000089511E0C8E0D1E000E005C0802FFE01C5
:1011F000DBDD2196011DC930D10780E00807B1F77A
:04120000F894FFCF90
:101204000000C8078000000000008402AF01DD0177
:10121400D0024D02EC013F020D0A005759424945E4
:10122400525A2050524F4752414D203A00312E20FD
:101234004E4F57592050524F4752414D00322E20A5
:10124400504F50525A45444E492050524F475241F4
:101254004D004E6F77792070726F6772616D005325
:0E126400746172792070726F6772616D0000A4
:00000001FF
